S015000045453230392050726F6A6563742E73726563F3
S11300000C9434000C94DA020C94E4020C94460030
S11300100C9446000C9446000C9446000C94460044
S11300200C9446000C9446000C9446000C94460034
S11300300C9446000C9446000C9446000C94460024
S11300400C9435020C9446000C943F020C94460028
S11300500C9446000C9449020C9446000C944600FF
S11300600C9446000C94460011241FBECFEFD8E038
S1130070DEBFCDBF23E0A0E0B1E001C01D92A63BEE
S1130080B207E1F70E9450030C94E4070C940000BB
S1130090ECE7F0E080818F778083808180648083C7
S11300A080818F7D80838081877F8083808184604D
S11300B0808380818D7F8083808181608083EAE773
S11300C0F0E0808180688083808180628083808189
S11300D08860808380818460808380818260808363
S11300E080818E7F8083EBE7F0E080818E7F808348
S11300F08081826080838081846080830895AF9250
S1130100BF92CF92DF92EF92FF920F931F93CF9300
S1130110DF93C9EBD2E00F2EF8EFCF2EF1E0DF2E04
S1130120F02D0F2EF8ECEF2EF1E0FF2EF02D08E568
S113013012E00F2EF9EEAF2EF2E0BF2EF02D6991F2
S1130140799180E090E00E94B60620E030EC4FE721
S113015054E40E94150620E030E040EA50E40E9496
S11301606807F60161937193819391936F01F7018D
S1130170619171917F0180E090E00E94B60620E0D9
S113018030EC4FE754E40E94150620E030E040EAEA
S113019050E40E946807F8016193719381939193ED
S11301A08F01CA15DB0559F6DF91CF911F910F918D
S11301B0FF90EF90DF90CF90BF90AF900895BC0177
S11301C080E090E00E94B60620E030EC4FE754E473
S11301D00E94150620E030E040EA50E40E946807DF
S11301E00895CF92DF92EF92FF920F931F93CF93D4
S11301F0DF939A01215031091216130614F5C82F02
S1130200D92FE62EF72E6A0101E010E06991799169
S113021089919991288139814A815B810E94A40541
S113022020E030E040E05FE30E946807F70161935B
S11302307193819391937F010F5F1F4F0C151D05DF
S113024029F7DF91CF911F910F91FF90EF90DF90ED
S1130250CF900895CF93DF931216130614F5C82F89
S1130260D92FE42FF52FA62FB72F80E090E04991E6
S11302705991699179914083518362837383821781
S113028093074CF44D915D916D917C911397448348
S1130290558366837783019638961496821793075D
S11302A031F7DF91CF910895CF92DF92EF92FF92D1
S11302B06B017C0120E030E040E250E40E94100633
S11302C088234CF4A701960160E070E080E290E49A
S11302D00E94A30508C020E030E040E250E4C701DA
S11302E0B6010E94A305FF90EF90DF90CF90089590
S11302F04F925F926F927F928F929F92AF92BF9232
S1130300CF92DF92EF92FF920F931F93CF93DF93DD
S1130310CDB7DEB7C85AD3400FB6F894DEBF0FBED0
S1130320CDBF7C018B0148E150E0BE016F5F7F4F80
S11303300E94F10048E150E0BE01635A7F4FC801BA
S11303400E94F10028E130E0AE0147545F4FBE0146
S11303506F5F7F4FC7010E942A0128E130E0AE01A0
S11303604B585E4FBE01635A7F4FC8010E942A0159
S1130370CE0187549F4F7C01FE01EB58FE4F6F0165
S11303808E010F5C1D4F4F015801F701619171916E
S1130390819191917F01F601219131914191519186
S11303A06F010E946807F5016193719381939193A2
S11303B05F01E814F90449F77E01F3E1EF1AFDEF58
S11303C0FF0A5E0187E1A81A8DEFB80A6701F801F8
S11303D041905190619071908F0120E030E040E0B5
S11303E05FE360817181828193810E9468079B0130
S11303F0AC01C301B2010E94A405F601619371939B
S1130400819391936F010A151B0509F78E01075516
S11304101C4F60E070E0CB01F701219131914191D3
S113042051917F010E94A405E016F106A9F720E08E
S113043030E04CE352E40E941506C855DC4F0FB679
S1130440F894DEBF0FBECDBFDF91CF911F910F9106
S1130450FF90EF90DF90CF90BF90AF909F908F90E0
S11304607F906F905F904F9008951F920F920FB6F8
S11304700F9211240F900FBE0F901F9018951F928A
S11304800F920FB60F9211240F900FBE0F901F9072
S113049018951F920F920FB60F9211242F933F932A
S11304A08F939F93EF93FF938091000190910101AB
S11304B0019690930101809300018091B80281110B
S11304C035C080910701883168F4E091060180917C
S11304D0780090917900F0E0EE0FFF1FE853FE4F93
S11304E0918380832091780030917900809102017A
S11304F0909103018217930740F4809178009091C2
S11305007900909303018093020181E08093B80203
S1130510809106018F5F80930601ECE7F0E0808113
S1130520807F808380818560808334C08091B8021D
S1130530813081F580910701883168F4E0910701E9
S11305408091780090917900F0E0EE0FFF1FE7545E
S1130550FD4F9183808320917800309179008091C0
S11305600401909105018217930740F4809178006B
S11305709091790090930501809304011092B80240
S1130580809107018F5F80930701ECE7F0E08081A1
S1130590807F8083EAE7F0E0808180648083FF913C
S11305A0EF919F918F913F912F910F900FBE0F90DC
S11305B01F9018951F920F920FB60F9211240F904F
S11305C00FBE0F901F9018951F920F920FB60F92A7
S11305D011240F900FBE0F901F901895EF92FF9269
S11305E00F931F93CF93DF93C8EFD1E008E011E09E
S11305F00F2EF8E5EF2EF2E0FF2EF02D69917991A0
S1130600899199910E94540123E333E343E151E436
S11306100E946807F80161937193819391938F010C
S1130620CE15DF0559F7DF91CF911F910F91FF9000
S1130630EF900895EF92FF920F931F93CF93DF9360
S1130640C8E5D2E008E611E00F2EF8EBEF2EF2E059
S1130650FF2EF02D69917991899199910E9454010D
S113066029E432E94CEB50E40E9415069B01AC01ED
S11306700E94A40520E030E04AE754E40E946807A1
S1130680F80161937193819391938F01CE15DF05E6
S113069009F7DF91CF911F910F91FF90EF9008958B
S11306A0CF93DF93CDB7DEB727970FB6F894DEBFAD
S11306B00FBECDBF8FEF84B987B98AB938983D98FA
S11306C078940E94480087E690E00E94BE040E944D
S11306D08E041092B802EAE7F0E08081806480839F
S11306E00E949605F12C809107018831E0F38091F6
S11306F006018831C0F3F8941092060110920701A4
S11307000E947F000E94EE020E941A030F2D10E047
S113071068E671E088E091E00E947801000F111F03
S1130720000F111FF801E251FD4F60837183828332
S11307309383F39421E32F15D8F500E010E0F8013A
S1130740EE0FFF1FEE0FFF1FE251FD4F608171811D
S1130750828193812091E9023091EA024091EB0277
S11307605091EC020E94A4056093E9027093EA029E
S11307708093EB029093EC020F5F1F4F023311053D
S1130780F1F66091E9027091EA028091EB02909196
S1130790EC0220E030E048E452E40E941506609345
S11307A0E9027093EA028093EB029093EC02F12C3D
S11307B08091000190910101803B944008F4ACC009
S11307C010920101109200018091020190910301A5
S11307D00E94DF004B015C018091040190910501AE
S11307E00E94DF000E94540123E333E343E151E418
S11307F00E9468072B013C01C501B4010E94540109
S113080029E432E94CEB50E40E9415069B01AC014B
S11308100E94A40520E030E04AE754E40E946807FF
S11308204B015C0123EF34E045EB5FE3C301B2010C
S11308300E9415066C837D838E839F8323EF34E0AF
S113084045EB5FE3C501B4010E9415069B01AC01B1
S11308506C817D818E819F810E9468076C837D837A
S11308608E839F8320E0B301A201CE0101960E94F2
S1130870E2048B81805D0E9485058A81805D0E94EF
S113088085058981805D0E94850586E50E94850530
S113089080E20E94850522E0B501A401CE01019603
S11308A00E94E2048B81805D0E9485058A81805DBF
S11308B00E9485058981805D0E9485058DE60E94E0
S11308C0850581E40E94850580E20E94850521E07A
S11308D04C815D816E817F81CE0101960E94E2048C
S11308E08B81805D0E9485058A81805D0E948505DB
S11308F08981805D0E94850587E50E94850580E2E7
S11309000E9485050E94960510920501109204012B
S113091010920301109202017894E5CE84B58F778A
S113092084BD84B58F7B84BD84B58F7D84BD84B53F
S11309308F7E84BD85B5877F85BD84B58D7F84BD5D
S113094084B58E7F84BD85B58F7785BD85B58F7B56
S113095085BD85B5846085BD85B58D7F85BD85B52F
S11309608E7F85BDEEE6F0E080818D7F808380817F
S11309708B7F80838081816080830895A1ECB0E0C7
S11309802C9128602C932C9120682C93E2ECF0E0BD
S113099020812F77208320812F7B208320812F7D2E
S11309A0208320812F7E20832081277F20832C9108
S11309B02B7F2C932081266020839093C500809305
S11309C0C40008958F929F92AF92BF92CF92DF920C
S11309D0EF92FF921F93CF93DF93EC016A017B01A7
S11309E0122F20E030E040E251E4C701B6010E943A
S11309F0100688235CF420E030E048EC52E4C701A0
S1130A00B6010E9468076B017C0123C020E030E03E
S1130A1048EC52E4C701B6010E94100688236CF426
S1130A201230B9F020E030E040E251E4C701B601F1
S1130A300E9468076B017C010CC0113051F420E066
S1130A4030E040E251E4C701B6010E9415066B0193
S1130A507C0120E030E048EC52E4C701B6010E947A
S1130A6015060E9487066A8320E030E040E251E4E4
S1130A70C701B6010E9415060E9487064B015C015E
S1130A809B01ADECBCEC0E94D50796958795969595
S1130A908795969587959C01220F331F880F991F80
S1130AA0880F991F880F991F820F931F881A990A1C
S1130AB08982C701B6010E9487066B017C019B01F4
S1130AC0ADECBCEC0E94D5079C0136952795369574
S1130AD0279536952795C901880F991F220F331F33
S1130AE0220F331F220F331F280F391FC21AD30AB4
S1130AF0C882DF91CF911F91FF90EF90DF90CF904C
S1130B00BF90AF909F908F900895E0ECF0E09081BB
S1130B1095FFFDCF8093C6002FEF89EF90E0215021
S1130B2080409040E1F700C00000089589EF0E94E2
S1130B3085058CEE0E94850582ED0E94850580EC7A
S1130B400E94850508955058BB27AA270E94BB051B
S1130B500C942E070E94200738F00E94270720F0EB
S1130B6039F49F3F19F426F40C941D070EF4E09514
S1130B70E7FB0C941707E92F0E943F0758F3BA17B5
S1130B80620773078407950720F079F4A6F50C949F
S1130B9061070EF4E0950B2EBA2FA02D0B01B901BD
S1130BA090010C01CA01A0011124FF27591B99F0DF
S1130BB0593F50F4503E68F11A16F040A22F232FEB
S1130BC0342F4427585FF3CF469537952795A7953B
S1130BD0F0405395C9F77EF41F16BA0B620B730BE2
S1130BE0840BBAF09150A1F0FF0FBB1F661F771F53
S1130BF0881FC2F70EC0BA0F621F731F841F48F408
S1130C00879577956795B795F7959E3F08F0B0CF90
S1130C109395880F08F09927EE0F97958795089577
S1130C200E94F30608F481E008950E9429060C94BA
S1130C302E070E94270758F00E94200740F029F44D
S1130C405F3F29F00C94170751110C9462070C9420
S1130C501D070E943F0768F39923B1F3552391F3CD
S1130C60951B550BBB27AA2762177307840738F017
S1130C709F5F5F4F220F331F441FAA1FA9F335D074
S1130C800E2E3AF0E0E832D091505040E695001C28
S1130C90CAF72BD0FE2F29D0660F771F881FBB1FE2
S1130CA0261737074807AB07B0E809F0BB0B802DC0
S1130CB0BF01FF2793585F4F3AF09E3F510578F0EC
S1130CC00C9417070C9462075F3FE4F3983ED4F347
S1130CD0869577956795B795F7959F5FC9F7880FC0
S1130CE0911D9695879597F90895E1E0660F771F12
S1130CF0881FBB1F621773078407BA0720F0621BA3
S1130D00730B840BBA0BEE1F88F7E09508950E94CD
S1130D10470788F09F5798F0B92F9927B751B0F03B
S1130D20E1F0660F771F881F991F1AF0BA95C9F76B
S1130D3014C0B13091F00E946107B1E008950C94A1
S1130D406107672F782F8827B85F39F0B93FCCF354
S1130D50869577956795B395D9F73EF490958095E8
S1130D60709561957F4F8F4F9F4F0895E89409C008
S1130D7097FB3EF490958095709561957F4F8F4FCA
S1130D809F4F9923A9F0F92F96E9BB279395F695E0
S1130D90879577956795B795F111F8CFFAF4BB0F5E
S1130DA011F460FF1BC06F5F7F4F8F4F9F4F16C0C2
S1130DB0882311F096E911C0772321F09EE8872F4C
S1130DC0762F05C0662371F096E8862F70E060E008
S1130DD02AF09A95660F771F881FDAF7880F969581
S1130DE0879597F90895990F0008550FAA0BE0E825
S1130DF0FEEF16161706E807F907C0F012161306D9
S1130E00E407F50798F0621B730B840B950B39F418
S1130E100A2661F0232B242B252B21F408950A267E
S1130E2009F4A140A6958FEF811D811D089597F9BE
S1130E309F6780E870E060E008959FEF80EC08957C
S1130E4000240A94161617061806090608950024A5
S1130E500A9412161306140605060895092E03941F
S1130E60000C11F4882352F0BB0F40F4BF2B11F493
S1130E7060FF04C06F5F7F4F8F4F9F4F089557FDF2
S1130E809058440F551F59F05F3F71F04795880FF4
S1130E9097FB991F61F09F3F79F08795089512168B
S1130EA013061406551FF2CF4695F1DF08C0161637
S1130EB017061806991FF1CF8695710561050894E8
S1130EC00895E894BB2766277727CB0197F90895FF
S1130ED00E947B070C942E070E94200738F00E9482
S1130EE0270720F0952311F00C9417070C941D0785
S1130EF011240C9462070E943F0770F3959FC1F37D
S1130F00950F50E0551F629FF001729FBB27F00DB3
S1130F10B11D639FAA27F00DB11DAA1F649F662708
S1130F20B00DA11D661F829F2227B00DA11D621F57
S1130F30739FB00DA11D621F839FA00D611D221F11
S1130F40749F3327A00D611D231F849F600D211DF5
S1130F50822F762F6A2F11249F5750409AF0F1F078
S1130F6088234AF0EE0FFF1FBB1F661F771F881FE1
S1130F7091505040A9F79E3F510580F00C941707FB
S1130F800C9462075F3FE4F3983ED4F3869577951B
S1130F906795B795F795E7959F5FC1F7FE2B880F87
S1130FA0911D9695879597F90895A29FB001B39FD7
S1130FB0C001A39F700D811D1124911DB29F700D5E
S10F0FC0811D1124911D0895F894FFCFA9
S9030000FC
